8=FIX.4.2|9=67|35=A|34=1|49=client|52=20180411-20:27:40.914|56=server|98=0|108=30|10=021|8=FIX.4.2|9=97|35=D|34=2|49=client|52=20180411-20:27:41.839|56=server|11=342|40=1|54=1|60=20180411-20:27:41.837|10=196|8=FIX.4.2|9=55|35=0|34=3|49=client|52=20180411-20:28:11.848|56=server|10=239|8=FIX.4.2|9=55|35=0|34=4|49=client|52=20180411-20:28:41.845|56=server|10=240|8=FIX.4.2|9=55|35=0|34=5|49=client|52=20180411-20:29:11.844|56=server|10=238|8=FIX.4.2|9=55|35=0|34=6|49=client|52=20180411-20:29:41.844|56=server|10=242|8=FIX.4.2|9=55|35=0|34=7|49=client|52=20180411-20:30:11.846|56=server|10=234|8=FIX.4.2|9=55|35=0|34=8|49=client|52=20180411-20:30:41.845|56=server|10=237|8=FIX.4.2|9=55|35=0|34=9|49=client|52=20180411-20:31:11.845|56=server|10=236|8=FIX.4.2|9=56|35=0|34=10|49=client|52=20180411-20:31:41.845|56=server|10=024|8=FIX.4.2|9=56|35=0|34=11|49=client|52=20180411-20:32:11.844|56=server|10=022|8=FIX.4.2|9=56|35=0|34=12|49=client|52=20180411-20:32:41.845|56=server|10=027|8=FIX.4.2|9=56|35=0|34=13|49=client|52=20180411-20:33:11.853|56=server|10=025|8=FIX.4.2|9=56|35=0|34=14|49=client|52=20180411-20:33:41.845|56=server|10=030|8=FIX.4.2|9=56|35=0|34=15|49=client|52=20180411-20:34:11.843|56=server|10=027|8=FIX.4.2|9=56|35=0|34=16|49=client|52=20180411-20:34:41.843|56=server|10=031|8=FIX.4.2|9=56|35=0|34=17|49=client|52=20180411-20:35:11.845|56=server|10=032|8=FIX.4.2|9=56|35=0|34=18|49=client|52=20180411-20:35:41.845|56=server|10=036|8=FIX.4.2|9=56|35=0|34=19|49=client|52=20180411-20:36:11.843|56=server|10=033|8=FIX.4.2|9=56|35=0|34=20|49=client|52=20180411-20:36:41.843|56=server|10=028|8=FIX.4.2|9=56|35=0|34=21|49=client|52=20180411-20:37:11.845|56=server|10=029|8=FIX.4.2|9=56|35=0|34=22|49=client|52=20180411-20:37:41.845|56=server|10=033|8=FIX.4.2|9=56|35=0|34=23|49=client|52=20180411-20:38:11.845|56=server|10=032|8=FIX.4.2|9=56|35=0|34=24|49=client|52=20180411-20:38:41.844|56=server|10=035|8=FIX.4.2|9=56|35=0|34=25|49=client|52=20180411-20:39:11.845|56=server|10=035|8=FIX.4.2|9=56|35=0|34=26|49=client|52=20180411-20:39:41.844|56=server|10=038|8=FIX.4.2|9=56|35=0|34=27|49=client|52=20180411-20:40:11.843|56=server|10=027|8=FIX.4.2|9=56|35=0|34=28|49=client|52=20180411-20:40:41.843|56=server|10=031|8=FIX.4.2|9=56|35=0|34=29|49=client|52=20180411-20:41:11.844|56=server|10=031|8=FIX.4.2|9=56|35=0|34=30|49=client|52=20180411-20:41:41.844|56=server|10=026|8=FIX.4.2|9=56|35=0|34=31|49=client|52=20180411-20:42:11.848|56=server|10=029|8=FIX.4.2|9=56|35=0|34=32|49=client|52=20180411-20:42:41.846|56=server|10=031|8=FIX.4.2|9=56|35=0|34=33|49=client|52=20180411-20:43:11.845|56=server|10=029|8=FIX.4.2|9=56|35=0|34=34|49=client|52=20180411-20:43:41.845|56=server|10=033|8=FIX.4.2|9=56|35=0|34=35|49=client|52=20180411-20:44:11.844|56=server|10=031|8=FIX.4.2|9=56|35=0|34=36|49=client|52=20180411-20:44:41.844|56=server|10=035|8=FIX.4.2|9=56|35=0|34=37|49=client|52=20180411-20:45:11.846|56=server|10=036|8=FIX.4.2|9=56|35=0|34=38|49=client|52=20180411-20:45:41.844|56=server|10=038|8=FIX.4.2|9=56|35=0|34=39|49=client|52=20180411-20:46:11.845|56=server|10=038|8=FIX.4.2|9=56|35=0|34=40|49=client|52=20180411-20:46:41.845|56=server|10=033|8=FIX.4.2|9=56|35=0|34=41|49=client|52=20180411-20:47:11.844|56=server|10=031|8=FIX.4.2|9=56|35=0|34=42|49=client|52=20180411-20:47:41.844|56=server|10=035|8=FIX.4.2|9=56|35=0|34=43|49=client|52=20180411-20:48:11.864|56=server|10=036|8=FIX.4.2|9=56|35=0|34=44|49=client|52=20180411-20:48:42.844|56=server|10=039|8=FIX.4.2|9=56|35=0|34=45|49=client|52=20180411-20:49:12.843|56=server|10=037|8=FIX.4.2|9=56|35=0|34=46|49=client|52=20180411-20:49:42.845|56=server|10=043|8=FIX.4.2|9=56|35=0|34=47|49=client|52=20180411-20:50:12.844|56=server|10=032|8=FIX.4.2|9=56|35=0|34=48|49=client|52=20180411-20:50:42.843|56=server|10=035|8=FIX.4.2|9=56|35=0|34=49|49=client|52=20180411-20:51:12.843|56=server|10=034|8=FIX.4.2|9=56|35=0|34=50|49=client|52=20180411-20:51:42.844|56=server|10=030|8=FIX.4.2|9=56|35=0|34=51|49=client|52=20180411-20:52:12.844|56=server|10=029|8=FIX.4.2|9=56|35=0|34=52|49=client|52=20180411-20:52:43.017|56=server|10=026|8=FIX.4.2|9=68|35=A|34=53|49=client|52=20180411-20:53:42.286|56=server|98=0|108=30|10=080|8=FIX.4.2|9=98|35=D|34=54|49=client|52=20180411-20:53:43.548|56=server|11=342|40=1|54=1|60=20180411-20:53:43.547|10=249|